{
  "_format": "hh-sol-artifact-1",
  "contractName": "DirectoryListing",
  "sourceName": "contracts/DirectoryListing.sol",
  "abi": [
    {
      "anonymous": false,
      "inputs": [
        {
          "indexed": false,
          "internalType": "string",
          "name": "id",
          "type": "string"
        },
        {
          "indexed": false,
          "internalType": "address",
          "name": "owner",
          "type": "address"
        },
        {
          "indexed": false,
          "internalType": "string",
          "name": "name",
          "type": "string"
        }
      ],
      "name": "ListingCreated",
      "type": "event"
    },
    {
      "anonymous": false,
      "inputs": [
        {
          "indexed": false,
          "internalType": "string",
          "name": "id",
          "type": "string"
        },
        {
          "indexed": false,
          "internalType": "address",
          "name": "owner",
          "type": "address"
        }
      ],
      "name": "ListingDeactivated",
      "type": "event"
    },
    {
      "anonymous": false,
      "inputs": [
        {
          "indexed": false,
          "internalType": "string",
          "name": "id",
          "type": "string"
        },
        {
          "indexed": false,
          "internalType": "address",
          "name": "rater",
          "type": "address"
        },
        {
          "indexed": false,
          "internalType": "uint32",
          "name": "rating",
          "type": "uint32"
        }
      ],
      "name": "ListingRated",
      "type": "event"
    },
    {
      "anonymous": false,
      "inputs": [
        {
          "indexed": false,
          "internalType": "string",
          "name": "id",
          "type": "string"
        },
        {
          "indexed": false,
          "internalType": "string",
          "name": "name",
          "type": "string"
        }
      ],
      "name": "ListingUpdated",
      "type": "event"
    },
    {
      "anonymous": false,
      "inputs": [
        {
          "indexed": false,
          "internalType": "string",
          "name": "id",
          "type": "string"
        },
        {
          "indexed": false,
          "internalType": "address",
          "name": "verifier",
          "type": "address"
        }
      ],
      "name": "ListingVerified",
      "type": "event"
    },
    {
      "inputs": [
        {
          "internalType": "string",
          "name": "id",
          "type": "string"
        },
        {
          "internalType": "address",
          "name": "owner",
          "type": "address"
        },
        {
          "internalType": "string",
          "name": "name",
          "type": "string"
        },
        {
          "internalType": "string",
          "name": "category",
          "type": "string"
        },
        {
          "internalType": "string",
          "name": "description",
          "type": "string"
        },
        {
          "internalType": "string",
          "name": "contact",
          "type": "string"
        },
        {
          "internalType": "string",
          "name": "website",
          "type": "string"
        },
        {
          "internalType": "string",
          "name": "location",
          "type": "string"
        }
      ],
      "name": "createListing",
      "outputs": [],
      "stateMutability": "nonpayable",
      "type": "function"
    },
    {
      "inputs": [
        {
          "internalType": "string",
          "name": "id",
          "type": "string"
        }
      ],
      "name": "deactivateListing",
      "outputs": [],
      "stateMutability": "nonpayable",
      "type": "function"
    },
    {
      "inputs": [
        {
          "internalType": "string",
          "name": "id",
          "type": "string"
        }
      ],
      "name": "getListing",
      "outputs": [
        {
          "components": [
            {
              "internalType": "string",
              "name": "id",
              "type": "string"
            },
            {
              "internalType": "address",
              "name": "owner",
              "type": "address"
            },
            {
              "internalType": "string",
              "name": "name",
              "type": "string"
            },
            {
              "internalType": "string",
              "name": "category",
              "type": "string"
            },
            {
              "internalType": "string",
              "name": "description",
              "type": "string"
            },
            {
              "internalType": "string",
              "name": "contact",
              "type": "string"
            },
            {
              "internalType": "string",
              "name": "website",
              "type": "string"
            },
            {
              "internalType": "string",
              "name": "location",
              "type": "string"
            },
            {
              "internalType": "bool",
              "name": "isVerified",
              "type": "bool"
            },
            {
              "internalType": "bool",
              "name": "isActive",
              "type": "bool"
            },
            {
              "internalType": "uint32",
              "name": "totalRating",
              "type": "uint32"
            },
            {
              "internalType": "uint32",
              "name": "ratingCount",
              "type": "uint32"
            },
            {
              "internalType": "uint64",
              "name": "createdAt",
              "type": "uint64"
            }
          ],
          "internalType": "struct DirectoryListing.Listing",
          "name": "",
          "type": "tuple"
        }
      ],
      "stateMutability": "view",
      "type": "function"
    },
    {
      "inputs": [],
      "name": "listAll",
      "outputs": [
        {
          "internalType": "string[]",
          "name": "",
          "type": "string[]"
        }
      ],
      "stateMutability": "view",
      "type": "function"
    },
    {
      "inputs": [
        {
          "internalType": "uint256",
          "name": "",
          "type": "uint256"
        }
      ],
      "name": "listingIds",
      "outputs": [
        {
          "internalType": "string",
          "name": "",
          "type": "string"
        }
      ],
      "stateMutability": "view",
      "type": "function"
    },
    {
      "inputs": [
        {
          "internalType": "string",
          "name": "",
          "type": "string"
        }
      ],
      "name": "listings",
      "outputs": [
        {
          "internalType": "string",
          "name": "id",
          "type": "string"
        },
        {
          "internalType": "address",
          "name": "owner",
          "type": "address"
        },
        {
          "internalType": "string",
          "name": "name",
          "type": "string"
        },
        {
          "internalType": "string",
          "name": "category",
          "type": "string"
        },
        {
          "internalType": "string",
          "name": "description",
          "type": "string"
        },
        {
          "internalType": "string",
          "name": "contact",
          "type": "string"
        },
        {
          "internalType": "string",
          "name": "website",
          "type": "string"
        },
        {
          "internalType": "string",
          "name": "location",
          "type": "string"
        },
        {
          "internalType": "bool",
          "name": "isVerified",
          "type": "bool"
        },
        {
          "internalType": "bool",
          "name": "isActive",
          "type": "bool"
        },
        {
          "internalType": "uint32",
          "name": "totalRating",
          "type": "uint32"
        },
        {
          "internalType": "uint32",
          "name": "ratingCount",
          "type": "uint32"
        },
        {
          "internalType": "uint64",
          "name": "createdAt",
          "type": "uint64"
        }
      ],
      "stateMutability": "view",
      "type": "function"
    },
    {
      "inputs": [
        {
          "internalType": "string",
          "name": "id",
          "type": "string"
        },
        {
          "internalType": "uint32",
          "name": "rating",
          "type": "uint32"
        }
      ],
      "name": "rateListing",
      "outputs": [],
      "stateMutability": "nonpayable",
      "type": "function"
    },
    {
      "inputs": [
        {
          "internalType": "string",
          "name": "id",
          "type": "string"
        },
        {
          "internalType": "string",
          "name": "name",
          "type": "string"
        },
        {
          "internalType": "string",
          "name": "description",
          "type": "string"
        },
        {
          "internalType": "string",
          "name": "contact",
          "type": "string"
        },
        {
          "internalType": "string",
          "name": "website",
          "type": "string"
        }
      ],
      "name": "updateListing",
      "outputs": [],
      "stateMutability": "nonpayable",
      "type": "function"
    },
    {
      "inputs": [
        {
          "internalType": "string",
          "name": "id",
          "type": "string"
        }
      ],
      "name": "verifyListing",
      "outputs": [],
      "stateMutability": "nonpayable",
      "type": "function"
    }
  ],
  "bytecode": "0x6080806040523461001657611310908161001c8239f35b600080fdfe6080604052600436101561001257600080fd5b60003560e01c80630f7cffeb14610e425780634ae9ec3014610b915780634e622584146107b957806352bea360146107545780635dcece96146105c65780636678e193146103e957806377dec6c31461026057806378a9eeed1461014f5763dc17b1551461007f57600080fd5b3461014a57602036600319011261014a576001600160401b0360043581811161014a577fbf16270d34c81c32ef15f2b64579606312ef8c3611e2dd35eb9251ae7edebad691600861012160206100dc610145953690600401610f30565b9361011060405191858751938581818b01966100f981838a610f86565b81016000815203019020015460501c161515611244565b604051809381928751928391610f86565b8101600081520301902001600160ff198254161790556040519182913390836112b2565b0390a1005b600080fd5b3461014a57600036600319011261014a57600180546001600160401b03811161024a5790604051906020610188818560051b0184610f0f565b8383528083019384836000527fb10e2d527612073b26eecdfd717e6a320cf44b4afac2b0732d9fcbe2b7fa0cf66000915b8383106102215750505050604051928184019082855251809152604084019160408260051b86010195926000905b8382106101f45786880387f35b90919293948380610210839a603f198b82030186528951610fa9565b9997019594939190910191016101e7565b90858086819a989594610236859b999b611055565b8152019201920192509694969593956101b9565b634e487b7160e01b600052604160045260246000fd5b3461014a57602036600319011261014a576001600160401b0360043581811161014a57610291903690600401610f30565b60405181818093516020819301916102a892610f86565b8101600081520360200190206102bd81611055565b60018201546001600160a01b0316929091906102db60028301611055565b916102e860038201611055565b6102f460048301611055565b61030060058401611055565b9061030d60068501611055565b9261031a60078601611055565b946008015496604051998a996101a0808c528b0161033791610fa9565b9060208b015289810360408b015261034e91610fa9565b88810360608a015261035f91610fa9565b878103608089015261037091610fa9565b86810360a088015261038191610fa9565b85810360c087015261039291610fa9565b84810360e08601526103a391610fa9565b9160ff811615156101008501528060081c60ff16151561012085015263ffffffff808260101c166101408601528160301c1661016085015260501c166101808301520390f35b3461014a57604036600319011261014a576001600160401b0360043581811161014a5761041a903690600401610f30565b906024359163ffffffff9182841680940361014a576040519061044f83519160086020948581818901966100f981838a610f86565b6001851015806105bb575b156105865761047782600892604051809381928851928391610f86565b810160008152030190200193845460ff8160081c161561054f5760101c8416810184811161053957855465ffffffff0000191660109190911b65ffffffff000016178555600184865460301c160193841161053957610515610529947f1b561ec4b322779f8495eebd9b998ee3d2fe459ee3a6f7c5a61b98a6ad7c2290969063ffffffff60301b82549160301b169063ffffffff60301b1916179055565b604051938493606085526060850190610fa9565b91339084015260408301520390a1005b634e487b7160e01b600052601160045260246000fd5b60405162461bcd60e51b815260048101849052600f60248201526e4c697374696e67496e61637469766560881b6044820152606490fd5b60405162461bcd60e51b815260048101839052600d60248201526c496e76616c6964526174696e6760981b6044820152606490fd5b50600585111561045a565b3461014a5760a036600319011261014a576001600160401b0360043581811161014a576105f7903690600401610f30565b60243582811161014a5761060f903690600401610f30565b9060443583811161014a57610628903690600401610f30565b60643584811161014a57610640903690600401610f30565b9260843585811161014a577feed9ef7229a1f52c3197a8a0358bf41b2a11b9ef303483522ec95c7180a9f1a99560066101459461072c6107469861072361070260208b6106b06106976107329b3690600401610f30565b99600860405185818187519701966100f981838a610f86565b6106e48d600160405191516106c6818487610f86565b820191600083528581838060a01b039403019020015416331461127b565b6106f08b5115156110fb565b8c604051938492839251928391610f86565b810160008152030190209361071a8960028701611135565b60048501611135565b60058301611135565b01611135565b604051938493604085526040850190610fa9565b908382036020850152610fa9565b3461014a57602036600319011261014a5760043560015481101561014a5761077b90610fce565b6107a35761078b61079f91611055565b604051918291602083526020830190610fa9565b0390f35b634e487b7160e01b600052600060045260246000fd5b3461014a5761010036600319011261014a576004356001600160401b03811161014a576107ea903690600401610f30565b602435906001600160a01b038216820361014a576044356001600160401b03811161014a5761081d903690600401610f30565b906064356001600160401b03811161014a5761083d903690600401610f30565b6084356001600160401b03811161014a5761085c903690600401610f30565b60a4356001600160401b03811161014a5761087b903690600401610f30565b60c4356001600160401b03811161014a5761089a903690600401610f30565b9060e4356001600160401b03811161014a576108ba903690600401610f30565b926001600160401b036008604051602081816108dc8c83815193849201610f86565b81016000815203019020015460501c16610b5c576108fc875115156110fb565b6040519461090986610ef3565b86865260018060a01b03891660208701528760408701526060860152608085015260a084015260c083015260e082015260006101008201526001610120820152600061014082015260006101608201526001600160401b034216610180820152610180600860405160208186516109838183858b01610f86565b81016000815203019020610998845182611135565b6001810160018060a01b036020860151166bffffffffffffffffffffffff60a01b8254161790556109d0604085015160028301611135565b6109e1606085015160038301611135565b6109f2608085015160048301611135565b610a0360a085015160058301611135565b610a1460c085015160068301611135565b610a2560e085015160078301611135565b01916101008101511515835460ff61ff00610120850151151560081b1692169061ffff191617178355610aa863ffffffff610a808161014085015116869065ffffffff000082549160101b169065ffffffff00001916179055565b610160830151855469ffffffff0000000000001916911660301b63ffffffff60301b16178455565b0151815467ffffffffffffffff60501b191660509190911b67ffffffffffffffff60501b161790556001546801000000000000000081101561024a57806001610af49201600155610fce565b6107a3577f7c98adf02980dcf2e98788352e04a53bd1b88dd7f7194145b534cca37a7e32b293610b3f93610b2b8461014594611135565b604051948594606086526060860190610fa9565b6001600160a01b0390921660208501528382036040850152610fa9565b60405162461bcd60e51b815260206004820152600d60248201526c416c726561647945786973747360981b6044820152606490fd5b3461014a57602036600319011261014a576004356001600160401b03811161014a576020610bc6610c3a923690600401610f30565b6000610180604051610bd781610ef3565b6060815282858201526060604082015260608082015260606080820152606060a0820152606060c0820152606060e08201528261010082015282610120820152826101408201528261016082015201528160405193828580945193849201610f86565b810160008152030190206001600160401b03600860405192610c5b84610ef3565b610c6481611055565b845260018101546001600160a01b03166020850152610c8560028201611055565b6040850152610c9660038201611055565b6060850152610ca760048201611055565b6080850152610cb860058201611055565b60a0850152610cc960068201611055565b60c0850152610cda60078201611055565b60e0850152015460ff8116151561010084015260ff8160081c16151561012084015263ffffffff8160101c1661014084015263ffffffff8160301c1661016084015260501c166101808201526040518091602082526001600160401b03610180610df6610d5584516101a060208801526101c0870190610fa9565b60018060a01b036020860151166040870152610de0610dcc610db8610da4610d9060408a015195601f19968c60608982850301910152610fa9565b60608a0151868c83030160808d0152610fa9565b6080890151858b83030160a08c0152610fa9565b60a0880151848a83030160c08b0152610fa9565b60c0870151838983030160e08a0152610fa9565b9060e08601519087830301610100880152610fa9565b926101008101511515610120860152610120810151151561014086015263ffffffff6101408201511661016086015263ffffffff61016082015116828601520151166101a08301520390f35b3461014a57602036600319011261014a576001600160401b0360043581811161014a577f8e3884215c0cad13e86122e368e0c57ee8c1ada0a39429032574ad3bbce8483c916008610ed16020610e9f610145953690600401610f30565b93610ebc60405191858751938581818b01966100f981838a610f86565b610110604051600187516106c6818487610f86565b810160008152030190200161ff001981541690556040519182913390836112b2565b6101a081019081106001600160401b0382111761024a57604052565b90601f801991011681019081106001600160401b0382111761024a57604052565b81601f8201121561014a578035906001600160401b03821161024a5760405192610f64601f8401601f191660200185610f0f565b8284526020838301011161014a57816000926020809301838601378301015290565b60005b838110610f995750506000910152565b8181015183820152602001610f89565b90602091610fc281518092818552858086019101610f86565b601f01601f1916010190565b6001548110156110055760016000527fb10e2d527612073b26eecdfd717e6a320cf44b4afac2b0732d9fcbe2b7fa0cf60190600090565b634e487b7160e01b600052603260045260246000fd5b90600182811c9216801561104b575b602083101461103557565b634e487b7160e01b600052602260045260246000fd5b91607f169161102a565b90604051918260008254926110698461101b565b9081845260019485811690816000146110d85750600114611095575b505061109392500383610f0f565b565b9093915060005260209081600020936000915b8183106110c057505061109393508201013880611085565b855488840185015294850194879450918301916110a8565b91505061109394506020925060ff191682840152151560051b8201013880611085565b1561110257565b60405162461bcd60e51b815260206004820152600b60248201526a496e76616c69644e616d6560a81b6044820152606490fd5b91909182516001600160401b03811161024a57611152825461101b565b601f81116111fc575b50602080601f831160011461119857508192939460009261118d575b50508160011b916000199060031b1c1916179055565b015190503880611177565b90601f198316958460005282600020926000905b8882106111e4575050836001959697106111cb575b505050811b019055565b015160001960f88460031b161c191690553880806111c1565b806001859682949686015181550195019301906111ac565b600083815260208120601f840160051c8101926020851061123a575b601f0160051c01915b82811061122f57505061115b565b818155600101611221565b9092508290611218565b1561124b57565b60405162461bcd60e51b8152602060048201526008602482015267139bdd119bdd5b9960c21b6044820152606490fd5b1561128257565b60405162461bcd60e51b81526020600482015260086024820152672737ba27bbb732b960c11b6044820152606490fd5b906112ca602091949394604084526040840190610fa9565b6001600160a01b0390941691015256fea2646970667358221220b6bef271232c8d51f6215783d51a8bf7f91231f36b8c4bc866232e503287466164736f6c63430008140033",
  "linkReferences": {},
  "deployedLinkReferences": {}
}