{"contracts/DirectoryListing.sol":{"DirectoryListing":{"abi":[{"anonymous":false,"inputs":[{"indexed":false,"internalType":"string","name":"id","type":"string"},{"indexed":false,"internalType":"address","name":"owner","type":"address"},{"indexed":false,"internalType":"string","name":"name","type":"string"}],"name":"ListingCreated","type":"event"},{"anonymous":false,"inputs":[{"indexed":false,"internalType":"string","name":"id","type":"string"},{"indexed":false,"internalType":"address","name":"owner","type":"address"}],"name":"ListingDeactivated","type":"event"},{"anonymous":false,"inputs":[{"indexed":false,"internalType":"string","name":"id","type":"string"},{"indexed":false,"internalType":"address","name":"rater","type":"address"},{"indexed":false,"internalType":"uint32","name":"rating","type":"uint32"}],"name":"ListingRated","type":"event"},{"anonymous":false,"inputs":[{"indexed":false,"internalType":"string","name":"id","type":"string"},{"indexed":false,"internalType":"string","name":"name","type":"string"}],"name":"ListingUpdated","type":"event"},{"anonymous":false,"inputs":[{"indexed":false,"internalType":"string","name":"id","type":"string"},{"indexed":false,"internalType":"address","name":"verifier","type":"address"}],"name":"ListingVerified","type":"event"},{"inputs":[{"internalType":"string","name":"id","type":"string"},{"internalType":"address","name":"owner","type":"address"},{"internalType":"string","name":"name","type":"string"},{"internalType":"string","name":"category","type":"string"},{"internalType":"string","name":"description","type":"string"},{"internalType":"string","name":"contact","type":"string"},{"internalType":"string","name":"website","type":"string"},{"internalType":"string","name":"location","type":"string"}],"name":"createListing","outputs":[],"stateMutability":"nonpayable","type":"function"},{"inputs":[{"internalType":"string","name":"id","type":"string"}],"name":"deactivateListing","outputs":[],"stateMutability":"nonpayable","type":"function"},{"inputs":[{"internalType":"string","name":"id","type":"string"}],"name":"getListing","outputs":[{"components":[{"internalType":"string","name":"id","type":"string"},{"internalType":"address","name":"owner","type":"address"},{"internalType":"string","name":"name","type":"string"},{"internalType":"string","name":"category","type":"string"},{"internalType":"string","name":"description","type":"string"},{"internalType":"string","name":"contact","type":"string"},{"internalType":"string","name":"website","type":"string"},{"internalType":"string","name":"location","type":"string"},{"internalType":"bool","name":"isVerified","type":"bool"},{"internalType":"bool","name":"isActive","type":"bool"},{"internalType":"uint32","name":"totalRating","type":"uint32"},{"internalType":"uint32","name":"ratingCount","type":"uint32"},{"internalType":"uint64","name":"createdAt","type":"uint64"}],"internalType":"struct DirectoryListing.Listing","name":"","type":"tuple"}],"stateMutability":"view","type":"function"},{"inputs":[],"name":"listAll","outputs":[{"internalType":"string[]","name":"","type":"string[]"}],"stateMutability":"view","type":"function"},{"inputs":[{"internalType":"uint256","name":"","type":"uint256"}],"name":"listingIds","outputs":[{"internalType":"string","name":"","type":"string"}],"stateMutability":"view","type":"function"},{"inputs":[{"internalType":"string","name":"","type":"string"}],"name":"listings","outputs":[{"internalType":"string","name":"id","type":"string"},{"internalType":"address","name":"owner","type":"address"},{"internalType":"string","name":"name","type":"string"},{"internalType":"string","name":"category","type":"string"},{"internalType":"string","name":"description","type":"string"},{"internalType":"string","name":"contact","type":"string"},{"internalType":"string","name":"website","type":"string"},{"internalType":"string","name":"location","type":"string"},{"internalType":"bool","name":"isVerified","type":"bool"},{"internalType":"bool","name":"isActive","type":"bool"},{"internalType":"uint32","name":"totalRating","type":"uint32"},{"internalType":"uint32","name":"ratingCount","type":"uint32"},{"internalType":"uint64","name":"createdAt","type":"uint64"}],"stateMutability":"view","type":"function"},{"inputs":[{"internalType":"string","name":"id","type":"string"},{"internalType":"uint32","name":"rating","type":"uint32"}],"name":"rateListing","outputs":[],"stateMutability":"nonpayable","type":"function"},{"inputs":[{"internalType":"string","name":"id","type":"string"},{"internalType":"string","name":"name","type":"string"},{"internalType":"string","name":"description","type":"string"},{"internalType":"string","name":"contact","type":"string"},{"internalType":"string","name":"website","type":"string"}],"name":"updateListing","outputs":[],"stateMutability":"nonpayable","type":"function"},{"inputs":[{"internalType":"string","name":"id","type":"string"}],"name":"verifyListing","outputs":[],"stateMutability":"nonpayable","type":"function"}],"evm":{"bytecode":{"linkReferences":{},"object":"6080806040523461001657611310908161001c8239f35b600080fdfe6080604052600436101561001257600080fd5b60003560e01c80630f7cffeb14610e425780634ae9ec3014610b915780634e622584146107b957806352bea360146107545780635dcece96146105c65780636678e193146103e957806377dec6c31461026057806378a9eeed1461014f5763dc17b1551461007f57600080fd5b3461014a57602036600319011261014a576001600160401b0360043581811161014a577fbf16270d34c81c32ef15f2b64579606312ef8c3611e2dd35eb9251ae7edebad691600861012160206100dc610145953690600401610f30565b9361011060405191858751938581818b01966100f981838a610f86565b81016000815203019020015460501c161515611244565b604051809381928751928391610f86565b8101600081520301902001600160ff198254161790556040519182913390836112b2565b0390a1005b600080fd5b3461014a57600036600319011261014a57600180546001600160401b03811161024a5790604051906020610188818560051b0184610f0f565b8383528083019384836000527fb10e2d527612073b26eecdfd717e6a320cf44b4afac2b0732d9fcbe2b7fa0cf66000915b8383106102215750505050604051928184019082855251809152604084019160408260051b86010195926000905b8382106101f45786880387f35b90919293948380610210839a603f198b82030186528951610fa9565b9997019594939190910191016101e7565b90858086819a989594610236859b999b611055565b8152019201920192509694969593956101b9565b634e487b7160e01b600052604160045260246000fd5b3461014a57602036600319011261014a576001600160401b0360043581811161014a57610291903690600401610f30565b60405181818093516020819301916102a892610f86565b8101600081520360200190206102bd81611055565b60018201546001600160a01b0316929091906102db60028301611055565b916102e860038201611055565b6102f460048301611055565b61030060058401611055565b9061030d60068501611055565b9261031a60078601611055565b946008015496604051998a996101a0808c528b0161033791610fa9565b9060208b015289810360408b015261034e91610fa9565b88810360608a015261035f91610fa9565b878103608089015261037091610fa9565b86810360a088015261038191610fa9565b85810360c087015261039291610fa9565b84810360e08601526103a391610fa9565b9160ff811615156101008501528060081c60ff16151561012085015263ffffffff808260101c166101408601528160301c1661016085015260501c166101808301520390f35b3461014a57604036600319011261014a576001600160401b0360043581811161014a5761041a903690600401610f30565b906024359163ffffffff9182841680940361014a576040519061044f83519160086020948581818901966100f981838a610f86565b6001851015806105bb575b156105865761047782600892604051809381928851928391610f86565b810160008152030190200193845460ff8160081c161561054f5760101c8416810184811161053957855465ffffffff0000191660109190911b65ffffffff000016178555600184865460301c160193841161053957610515610529947f1b561ec4b322779f8495eebd9b998ee3d2fe459ee3a6f7c5a61b98a6ad7c2290969063ffffffff60301b82549160301b169063ffffffff60301b1916179055565b604051938493606085526060850190610fa9565b91339084015260408301520390a1005b634e487b7160e01b600052601160045260246000fd5b60405162461bcd60e51b815260048101849052600f60248201526e4c697374696e67496e61637469766560881b6044820152606490fd5b60405162461bcd60e51b815260048101839052600d60248201526c496e76616c6964526174696e6760981b6044820152606490fd5b50600585111561045a565b3461014a5760a036600319011261014a576001600160401b0360043581811161014a576105f7903690600401610f30565b60243582811161014a5761060f903690600401610f30565b9060443583811161014a57610628903690600401610f30565b60643584811161014a57610640903690600401610f30565b9260843585811161014a577feed9ef7229a1f52c3197a8a0358bf41b2a11b9ef303483522ec95c7180a9f1a99560066101459461072c6107469861072361070260208b6106b06106976107329b3690600401610f30565b99600860405185818187519701966100f981838a610f86565b6106e48d600160405191516106c6818487610f86565b820191600083528581838060a01b039403019020015416331461127b565b6106f08b5115156110fb565b8c604051938492839251928391610f86565b810160008152030190209361071a8960028701611135565b60048501611135565b60058301611135565b01611135565b604051938493604085526040850190610fa9565b908382036020850152610fa9565b3461014a57602036600319011261014a5760043560015481101561014a5761077b90610fce565b6107a35761078b61079f91611055565b604051918291602083526020830190610fa9565b0390f35b634e487b7160e01b600052600060045260246000fd5b3461014a5761010036600319011261014a576004356001600160401b03811161014a576107ea903690600401610f30565b602435906001600160a01b038216820361014a576044356001600160401b03811161014a5761081d903690600401610f30565b906064356001600160401b03811161014a5761083d903690600401610f30565b6084356001600160401b03811161014a5761085c903690600401610f30565b60a4356001600160401b03811161014a5761087b903690600401610f30565b60c4356001600160401b03811161014a5761089a903690600401610f30565b9060e4356001600160401b03811161014a576108ba903690600401610f30565b926001600160401b036008604051602081816108dc8c83815193849201610f86565b81016000815203019020015460501c16610b5c576108fc875115156110fb565b6040519461090986610ef3565b86865260018060a01b03891660208701528760408701526060860152608085015260a084015260c083015260e082015260006101008201526001610120820152600061014082015260006101608201526001600160401b034216610180820152610180600860405160208186516109838183858b01610f86565b81016000815203019020610998845182611135565b6001810160018060a01b036020860151166bffffffffffffffffffffffff60a01b8254161790556109d0604085015160028301611135565b6109e1606085015160038301611135565b6109f2608085015160048301611135565b610a0360a085015160058301611135565b610a1460c085015160068301611135565b610a2560e085015160078301611135565b01916101008101511515835460ff61ff00610120850151151560081b1692169061ffff191617178355610aa863ffffffff610a808161014085015116869065ffffffff000082549160101b169065ffffffff00001916179055565b610160830151855469ffffffff0000000000001916911660301b63ffffffff60301b16178455565b0151815467ffffffffffffffff60501b191660509190911b67ffffffffffffffff60501b161790556001546801000000000000000081101561024a57806001610af49201600155610fce565b6107a3577f7c98adf02980dcf2e98788352e04a53bd1b88dd7f7194145b534cca37a7e32b293610b3f93610b2b8461014594611135565b604051948594606086526060860190610fa9565b6001600160a01b0390921660208501528382036040850152610fa9565b60405162461bcd60e51b815260206004820152600d60248201526c416c726561647945786973747360981b6044820152606490fd5b3461014a57602036600319011261014a576004356001600160401b03811161014a576020610bc6610c3a923690600401610f30565b6000610180604051610bd781610ef3565b6060815282858201526060604082015260608082015260606080820152606060a0820152606060c0820152606060e08201528261010082015282610120820152826101408201528261016082015201528160405193828580945193849201610f86565b810160008152030190206001600160401b03600860405192610c5b84610ef3565b610c6481611055565b845260018101546001600160a01b03166020850152610c8560028201611055565b6040850152610c9660038201611055565b6060850152610ca760048201611055565b6080850152610cb860058201611055565b60a0850152610cc960068201611055565b60c0850152610cda60078201611055565b60e0850152015460ff8116151561010084015260ff8160081c16151561012084015263ffffffff8160101c1661014084015263ffffffff8160301c1661016084015260501c166101808201526040518091602082526001600160401b03610180610df6610d5584516101a060208801526101c0870190610fa9565b60018060a01b036020860151166040870152610de0610dcc610db8610da4610d9060408a015195601f19968c60608982850301910152610fa9565b60608a0151868c83030160808d0152610fa9565b6080890151858b83030160a08c0152610fa9565b60a0880151848a83030160c08b0152610fa9565b60c0870151838983030160e08a0152610fa9565b9060e08601519087830301610100880152610fa9565b926101008101511515610120860152610120810151151561014086015263ffffffff6101408201511661016086015263ffffffff61016082015116828601520151166101a08301520390f35b3461014a57602036600319011261014a576001600160401b0360043581811161014a577f8e3884215c0cad13e86122e368e0c57ee8c1ada0a39429032574ad3bbce8483c916008610ed16020610e9f610145953690600401610f30565b93610ebc60405191858751938581818b01966100f981838a610f86565b610110604051600187516106c6818487610f86565b810160008152030190200161ff001981541690556040519182913390836112b2565b6101a081019081106001600160401b0382111761024a57604052565b90601f801991011681019081106001600160401b0382111761024a57604052565b81601f8201121561014a578035906001600160401b03821161024a5760405192610f64601f8401601f191660200185610f0f565b8284526020838301011161014a57816000926020809301838601378301015290565b60005b838110610f995750506000910152565b8181015183820152602001610f89565b90602091610fc281518092818552858086019101610f86565b601f01601f1916010190565b6001548110156110055760016000527fb10e2d527612073b26eecdfd717e6a320cf44b4afac2b0732d9fcbe2b7fa0cf60190600090565b634e487b7160e01b600052603260045260246000fd5b90600182811c9216801561104b575b602083101461103557565b634e487b7160e01b600052602260045260246000fd5b91607f169161102a565b90604051918260008254926110698461101b565b9081845260019485811690816000146110d85750600114611095575b505061109392500383610f0f565b565b9093915060005260209081600020936000915b8183106110c057505061109393508201013880611085565b855488840185015294850194879450918301916110a8565b91505061109394506020925060ff191682840152151560051b8201013880611085565b1561110257565b60405162461bcd60e51b815260206004820152600b60248201526a496e76616c69644e616d6560a81b6044820152606490fd5b91909182516001600160401b03811161024a57611152825461101b565b601f81116111fc575b50602080601f831160011461119857508192939460009261118d575b50508160011b916000199060031b1c1916179055565b015190503880611177565b90601f198316958460005282600020926000905b8882106111e4575050836001959697106111cb575b505050811b019055565b015160001960f88460031b161c191690553880806111c1565b806001859682949686015181550195019301906111ac565b600083815260208120601f840160051c8101926020851061123a575b601f0160051c01915b82811061122f57505061115b565b818155600101611221565b9092508290611218565b1561124b57565b60405162461bcd60e51b8152602060048201526008602482015267139bdd119bdd5b9960c21b6044820152606490fd5b1561128257565b60405162461bcd60e51b81526020600482015260086024820152672737ba27bbb732b960c11b6044820152606490fd5b906112ca602091949394604084526040840190610fa9565b6001600160a01b0390941691015256fea2646970667358221220b6bef271232c8d51f6215783d51a8bf7f91231f36b8c4bc866232e503287466164736f6c63430008140033","opcodes":"PUSH1 0x80 DUP1 PUSH1 0x40 MSTORE CALLVALUE PUSH2 0x16 JUMPI PUSH2 0x1310 SWAP1 DUP2 PUSH2 0x1C DUP3 CODECOPY RETURN JUMPDEST PUSH1 0x0 DUP1 REVERT INVALID PUSH1 0x80 PUSH1 0x40 MSTORE PUSH1 0x4 CALLDATASIZE LT ISZERO PUSH2 0x12 JUMPI PUSH1 0x0 DUP1 REVERT JUMPDEST PUSH1 0x0 CALLDATALOAD PUSH1 0xE0 SHR DUP1 PUSH4 0xF7CFFEB EQ PUSH2 0xE42 JUMPI DUP1 PUSH4 0x4AE9EC30 EQ PUSH2 0xB91 JUMPI DUP1 PUSH4 0x4E622584 EQ PUSH2 0x7B9 JUMPI DUP1 PUSH4 0x52BEA360 EQ PUSH2 0x754 JUMPI DUP1 PUSH4 0x5DCECE96 EQ PUSH2 0x5C6 JUMPI DUP1 PUSH4 0x6678E193 EQ PUSH2 0x3E9 JUMPI DUP1 PUSH4 0x77DEC6C3 EQ PUSH2 0x260 JUMPI DUP1 PUSH4 0x78A9EEED EQ PUSH2 0x14F JUMPI PUSH4 0xDC17B155 EQ PUSH2 0x7F JUMPI PUSH1 0x0 DUP1 REVERT JUMPDEST CALLVALUE PUSH2 0x14A JUMPI PUSH1 0x20 CALLDATASIZE PUSH1 0x3 NOT ADD SLT PUSH2 0x14A JUMPI PUSH1 0x1 PUSH1 0x1 PUSH1 0x40 SHL SUB PUSH1 0x4 CALLDATALOAD DUP2 DUP2 GT PUSH2 0x14A JUMPI PUSH32 0xBF16270D34C81C32EF15F2B64579606312EF8C3611E2DD35EB9251AE7EDEBAD6 SWAP2 PUSH1 0x8 PUSH2 0x121 PUSH1 0x20 PUSH2 0xDC PUSH2 0x145 SWAP6 CALLDATASIZE SWAP1 PUSH1 0x4 ADD PUSH2 0xF30 JUMP JUMPDEST SWAP4 PUSH2 0x110 PUSH1 0x40 MLOAD SWAP2 DUP6 DUP8 MLOAD SWAP4 DUP6 DUP2 DUP2 DUP12 ADD SWAP7 PUSH2 0xF9 DUP2 DUP4 DUP11 PUSH2 0xF86 JUMP JUMPDEST DUP2 ADD PUSH1 0x0 DUP2 MSTORE SUB ADD SWAP1 KECCAK256 ADD SLOAD PUSH1 0x50 SHR AND ISZERO ISZERO PUSH2 0x1244 JUMP JUMPDEST PUSH1 0x40 MLOAD DUP1 SWAP4 DUP2 SWAP3 DUP8 MLOAD SWAP3 DUP4 SWAP2 PUSH2 0xF86 JUMP JUMPDEST DUP2 ADD PUSH1 0x0 DUP2 MSTORE SUB ADD SWAP1 KECCAK256 ADD PUSH1 0x1 PUSH1 0xFF NOT DUP3 SLOAD AND OR SWAP1 SSTORE PUSH1 0x40 MLOAD SWAP2 DUP3 SWAP2 CALLER SWAP1 DUP4 PUSH2 0x12B2 JUMP JUMPDEST SUB SWAP1 LOG1 STOP JUMPDEST PUSH1 0x0 DUP1 REVERT JUMPDEST CALLVALUE PUSH2 0x14A JUMPI PUSH1 0x0 CALLDATASIZE PUSH1 0x3 NOT ADD SLT PUSH2 0x14A JUMPI PUSH1 0x1 DUP1 SLOAD PUSH1 0x1 PUSH1 0x1 PUSH1 0x40 SHL SUB DUP2 GT PUSH2 0x24A JUMPI SWAP1 PUSH1 0x40 MLOAD SWAP1 PUSH1 0x20 PUSH2 0x188 DUP2 DUP6 PUSH1 0x5 SHL ADD DUP5 PUSH2 0xF0F JUMP JUMPDEST DUP4 DUP4 MSTORE DUP1 DUP4 ADD SWAP4 DUP5 DUP4 PUSH1 0x0 MSTORE PUSH32 0xB10E2D527612073B26EECDFD717E6A320CF44B4AFAC2B0732D9FCBE2B7FA0CF6 PUSH1 0x0 SWAP2 JUMPDEST DUP4 DUP4 LT PUSH2 0x221 JUMPI POP POP POP POP PUSH1 0x40 MLOAD SWAP3 DUP2 DUP5 ADD SWAP1 DUP3 DUP6 MSTORE MLOAD DUP1 SWAP2 MSTORE PUSH1 0x40 DUP5 ADD SWAP2 PUSH1 0x40 DUP3 PUSH1 0x5 SHL DUP7 ADD ADD SWAP6 SWAP3 PUSH1 0x0 SWAP1 JUMPDEST DUP4 DUP3 LT PUSH2 0x1F4 JUMPI DUP7 DUP9 SUB DUP8 RETURN JUMPDEST SWAP1 SWAP2 SWAP3 SWAP4 SWAP5 DUP4 DUP1 PUSH2 0x210 DUP4 SWAP11 PUSH1 0x3F NOT DUP12 DUP3 SUB ADD DUP7 MSTORE DUP10 MLOAD PUSH2 0xFA9 JUMP JUMPDEST SWAP10 SWAP8 ADD SWAP6 SWAP5 SWAP4 SWAP2 SWAP1 SWAP2 ADD SWAP2 ADD PUSH2 0x1E7 JUMP JUMPDEST SWAP1 DUP6 DUP1 DUP7 DUP2 SWAP11 SWAP9 SWAP6 SWAP5 PUSH2 0x236 DUP6 SWAP12 SWAP10 SWAP12 PUSH2 0x1055 JUMP JUMPDEST DUP2 MSTORE ADD SWAP3 ADD SWAP3 ADD SWAP3 POP SWAP7 SWAP5 SWAP7 SWAP6 SWAP4 SWAP6 PUSH2 0x1B9 JUMP JUMPDEST PUSH4 0x4E487B71 PUSH1 0xE0 SHL PUSH1 0x0 MSTORE PUSH1 0x41 PUSH1 0x4 MSTORE PUSH1 0x24 PUSH1 0x0 REVERT JUMPDEST CALLVALUE PUSH2 0x14A JUMPI PUSH1 0x20 CALLDATASIZE PUSH1 0x3 NOT ADD SLT PUSH2 0x14A JUMPI PUSH1 0x1 PUSH1 0x1 PUSH1 0x40 SHL SUB PUSH1 0x4 CALLDATALOAD DUP2 DUP2 GT PUSH2 0x14A JUMPI PUSH2 0x291 SWAP1 CALLDATASIZE SWAP1 PUSH1 0x4 ADD PUSH2 0xF30 JUMP JUMPDEST PUSH1 0x40 MLOAD DUP2 DUP2 DUP1 SWAP4 MLOAD PUSH1 0x20 DUP2 SWAP4 ADD SWAP2 PUSH2 0x2A8 SWAP3 PUSH2 0xF86 JUMP JUMPDEST DUP2 ADD PUSH1 0x0 DUP2 MSTORE SUB PUSH1 0x20 ADD SWAP1 KECCAK256 PUSH2 0x2BD DUP2 PUSH2 0x1055 JUMP JUMPDEST PUSH1 0x1 DUP3 ADD SLOAD PUSH1 0x1 PUSH1 0x1 PUSH1 0xA0 SHL SUB AND SWAP3 SWAP1 SWAP2 SWAP1 PUSH2 0x2DB PUSH1 0x2 DUP4 ADD PUSH2 0x1055 JUMP JUMPDEST SWAP2 PUSH2 0x2E8 PUSH1 0x3 DUP3 ADD PUSH2 0x1055 JUMP JUMPDEST PUSH2 0x2F4 PUSH1 0x4 DUP4 ADD PUSH2 0x1055 JUMP JUMPDEST PUSH2 0x300 PUSH1 0x5 DUP5 ADD PUSH2 0x1055 JUMP JUMPDEST SWAP1 PUSH2 0x30D PUSH1 0x6 DUP6 ADD PUSH2 0x1055 JUMP JUMPDEST SWAP3 PUSH2 0x31A PUSH1 0x7 DUP7 ADD PUSH2 0x1055 JUMP JUMPDEST SWAP5 PUSH1 0x8 ADD SLOAD SWAP7 PUSH1 0x40 MLOAD SWAP10 DUP11 SWAP10 PUSH2 0x1A0 DUP1 DUP13 MSTORE DUP12 ADD PUSH2 0x337 SWAP2 PUSH2 0xFA9 JUMP JUMPDEST SWAP1 PUSH1 0x20 DUP12 ADD MSTORE DUP10 DUP2 SUB PUSH1 0x40 DUP12 ADD MSTORE PUSH2 0x34E SWAP2 PUSH2 0xFA9 JUMP JUMPDEST DUP9 DUP2 SUB PUSH1 0x60 DUP11 ADD MSTORE PUSH2 0x35F SWAP2 PUSH2 0xFA9 JUMP JUMPDEST DUP8 DUP2 SUB PUSH1 0x80 DUP10 ADD MSTORE PUSH2 0x370 SWAP2 PUSH2 0xFA9 JUMP JUMPDEST DUP7 DUP2 SUB PUSH1 0xA0 DUP9 ADD MSTORE PUSH2 0x381 SWAP2 PUSH2 0xFA9 JUMP JUMPDEST DUP6 DUP2 SUB PUSH1 0xC0 DUP8 ADD MSTORE PUSH2 0x392 SWAP2 PUSH2 0xFA9 JUMP JUMPDEST DUP5 DUP2 SUB PUSH1 0xE0 DUP7 ADD MSTORE PUSH2 0x3A3 SWAP2 PUSH2 0xFA9 JUMP JUMPDEST SWAP2 PUSH1 0xFF DUP2 AND ISZERO ISZERO PUSH2 0x100 DUP6 ADD MSTORE DUP1 PUSH1 0x8 SHR PUSH1 0xFF AND ISZERO ISZERO PUSH2 0x120 DUP6 ADD MSTORE PUSH4 0xFFFFFFFF DUP1 DUP3 PUSH1 0x10 SHR AND PUSH2 0x140 DUP7 ADD MSTORE DUP2 PUSH1 0x30 SHR AND PUSH2 0x160 DUP6 ADD MSTORE PUSH1 0x50 SHR AND PUSH2 0x180 DUP4 ADD MSTORE SUB SWAP1 RETURN JUMPDEST CALLVALUE PUSH2 0x14A JUMPI PUSH1 0x40 CALLDATASIZE PUSH1 0x3 NOT ADD SLT PUSH2 0x14A JUMPI PUSH1 0x1 PUSH1 0x1 PUSH1 0x40 SHL SUB PUSH1 0x4 CALLDATALOAD DUP2 DUP2 GT PUSH2 0x14A JUMPI PUSH2 0x41A SWAP1 CALLDATASIZE SWAP1 PUSH1 0x4 ADD PUSH2 0xF30 JUMP JUMPDEST SWAP1 PUSH1 0x24 CALLDATALOAD SWAP2 PUSH4 0xFFFFFFFF SWAP2 DUP3 DUP5 AND DUP1 SWAP5 SUB PUSH2 0x14A JUMPI PUSH1 0x40 MLOAD SWAP1 PUSH2 0x44F DUP4 MLOAD SWAP2 PUSH1 0x8 PUSH1 0x20 SWAP5 DUP6 DUP2 DUP2 DUP10 ADD SWAP7 PUSH2 0xF9 DUP2 DUP4 DUP11 PUSH2 0xF86 JUMP JUMPDEST PUSH1 0x1 DUP6 LT ISZERO DUP1 PUSH2 0x5BB JUMPI JUMPDEST ISZERO PUSH2 0x586 JUMPI PUSH2 0x477 DUP3 PUSH1 0x8 SWAP3 PUSH1 0x40 MLOAD DUP1 SWAP4 DUP2 SWAP3 DUP9 MLOAD SWAP3 DUP4 SWAP2 PUSH2 0xF86 JUMP JUMPDEST DUP2 ADD PUSH1 0x0 DUP2 MSTORE SUB ADD SWAP1 KECCAK256 ADD SWAP4 DUP5 SLOAD PUSH1 0xFF DUP2 PUSH1 0x8 SHR AND ISZERO PUSH2 0x54F JUMPI PUSH1 0x10 SHR DUP5 AND DUP2 ADD DUP5 DUP2 GT PUSH2 0x539 JUMPI DUP6 SLOAD PUSH6 0xFFFFFFFF0000 NOT AND PUSH1 0x10 SWAP2 SWAP1 SWAP2 SHL PUSH6 0xFFFFFFFF0000 AND OR DUP6 SSTORE PUSH1 0x1 DUP5 DUP7 SLOAD PUSH1 0x30 SHR AND ADD SWAP4 DUP5 GT PUSH2 0x539 JUMPI PUSH2 0x515 PUSH2 0x529 SWAP5 PUSH32 0x1B561EC4B322779F8495EEBD9B998EE3D2FE459EE3A6F7C5A61B98A6AD7C2290 SWAP7 SWAP1 PUSH4 0xFFFFFFFF PUSH1 0x30 SHL DUP3 SLOAD SWAP2 PUSH1 0x30 SHL AND SWAP1 PUSH4 0xFFFFFFFF PUSH1 0x30 SHL NOT AND OR SWAP1 SSTORE JUMP JUMPDEST PUSH1 0x40 MLOAD SWAP4 DUP5 SWAP4 PUSH1 0x60 DUP6 MSTORE PUSH1 0x60 DUP6 ADD SWAP1 PUSH2 0xFA9 JUMP JUMPDEST SWAP2 CALLER SWAP1 DUP5 ADD MSTORE PUSH1 0x40 DUP4 ADD MSTORE SUB SWAP1 LOG1 STOP JUMPDEST PUSH4 0x4E487B71 PUSH1 0xE0 SHL PUSH1 0x0 MSTORE PUSH1 0x11 PUSH1 0x4 MSTORE PUSH1 0x24 PUSH1 0x0 REVERT JUMPDEST PUSH1 0x40 MLOAD PUSH3 0x461BCD PUSH1 0xE5 SHL DUP2 MSTORE PUSH1 0x4 DUP2 ADD DUP5 SWAP1 MSTORE PUSH1 0xF PUSH1 0x24 DUP3 ADD MSTORE PUSH15 0x4C697374696E67496E616374697665 PUSH1 0x88 SHL PUSH1 0x44 DUP3 ADD MSTORE PUSH1 0x64 SWAP1 REVERT JUMPDEST PUSH1 0x40 MLOAD PUSH3 0x461BCD PUSH1 0xE5 SHL DUP2 MSTORE PUSH1 0x4 DUP2 ADD DUP4 SWAP1 MSTORE PUSH1 0xD PUSH1 0x24 DUP3 ADD MSTORE PUSH13 0x496E76616C6964526174696E67 PUSH1 0x98 SHL PUSH1 0x44 DUP3 ADD MSTORE PUSH1 0x64 SWAP1 REVERT JUMPDEST POP PUSH1 0x5 DUP6 GT ISZERO PUSH2 0x45A JUMP JUMPDEST CALLVALUE PUSH2 0x14A JUMPI PUSH1 0xA0 CALLDATASIZE PUSH1 0x3 NOT ADD SLT PUSH2 0x14A JUMPI PUSH1 0x1 PUSH1 0x1 PUSH1 0x40 SHL SUB PUSH1 0x4 CALLDATALOAD DUP2 DUP2 GT PUSH2 0x14A JUMPI PUSH2 0x5F7 SWAP1 CALLDATASIZE SWAP1 PUSH1 0x4 ADD PUSH2 0xF30 JUMP JUMPDEST PUSH1 0x24 CALLDATALOAD DUP3 DUP2 GT PUSH2 0x14A JUMPI PUSH2 0x60F SWAP1 CALLDATASIZE SWAP1 PUSH1 0x4 ADD PUSH2 0xF30 JUMP JUMPDEST SWAP1 PUSH1 0x44 CALLDATALOAD DUP4 DUP2 GT PUSH2 0x14A JUMPI PUSH2 0x628 SWAP1 CALLDATASIZE SWAP1 PUSH1 0x4 ADD PUSH2 0xF30 JUMP JUMPDEST PUSH1 0x64 CALLDATALOAD DUP5 DUP2 GT PUSH2 0x14A JUMPI PUSH2 0x640 SWAP1 CALLDATASIZE SWAP1 PUSH1 0x4 ADD PUSH2 0xF30 JUMP JUMPDEST SWAP3 PUSH1 0x84 CALLDATALOAD DUP6 DUP2 GT PUSH2 0x14A JUMPI PUSH32 0xEED9EF7229A1F52C3197A8A0358BF41B2A11B9EF303483522EC95C7180A9F1A9 SWAP6 PUSH1 0x6 PUSH2 0x145 SWAP5 PUSH2 0x72C PUSH2 0x746 SWAP9 PUSH2 0x723 PUSH2 0x702 PUSH1 0x20 DUP12 PUSH2 0x6B0 PUSH2 0x697 PUSH2 0x732 SWAP12 CALLDATASIZE SWAP1 PUSH1 0x4 ADD PUSH2 0xF30 JUMP JUMPDEST SWAP10 PUSH1 0x8 PUSH1 0x40 MLOAD DUP6 DUP2 DUP2 DUP8 MLOAD SWAP8 ADD SWAP7 PUSH2 0xF9 DUP2 DUP4 DUP11 PUSH2 0xF86 JUMP JUMPDEST PUSH2 0x6E4 DUP14 PUSH1 0x1 PUSH1 0x40 MLOAD SWAP2 MLOAD PUSH2 0x6C6 DUP2 DUP5 DUP8 PUSH2 0xF86 JUMP JUMPDEST DUP3 ADD SWAP2 PUSH1 0x0 DUP4 MSTORE DUP6 DUP2 DUP4 DUP1 PUSH1 0xA0 SHL SUB SWAP5 SUB ADD SWAP1 KECCAK256 ADD SLOAD AND CALLER EQ PUSH2 0x127B JUMP JUMPDEST PUSH2 0x6F0 DUP12 MLOAD ISZERO ISZERO PUSH2 0x10FB JUMP JUMPDEST DUP13 PUSH1 0x40 MLOAD SWAP4 DUP5 SWAP3 DUP4 SWAP3 MLOAD SWAP3 DUP4 SWAP2 PUSH2 0xF86 JUMP JUMPDEST DUP2 ADD PUSH1 0x0 DUP2 MSTORE SUB ADD SWAP1 KECCAK256 SWAP4 PUSH2 0x71A DUP10 PUSH1 0x2 DUP8 ADD PUSH2 0x1135 JUMP JUMPDEST PUSH1 0x4 DUP6 ADD PUSH2 0x1135 JUMP JUMPDEST PUSH1 0x5 DUP4 ADD PUSH2 0x1135 JUMP JUMPDEST ADD PUSH2 0x1135 JUMP JUMPDEST PUSH1 0x40 MLOAD SWAP4 DUP5 SWAP4 PUSH1 0x40 DUP6 MSTORE PUSH1 0x40 DUP6 ADD SWAP1 PUSH2 0xFA9 JUMP JUMPDEST SWAP1 DUP4 DUP3 SUB PUSH1 0x20 DUP6 ADD MSTORE PUSH2 0xFA9 JUMP JUMPDEST CALLVALUE PUSH2 0x14A JUMPI PUSH1 0x20 CALLDATASIZE PUSH1 0x3 NOT ADD SLT PUSH2 0x14A JUMPI PUSH1 0x4 CALLDATALOAD PUSH1 0x1 SLOAD DUP2 LT ISZERO PUSH2 0x14A JUMPI PUSH2 0x77B SWAP1 PUSH2 0xFCE JUMP JUMPDEST PUSH2 0x7A3 JUMPI PUSH2 0x78B PUSH2 0x79F SWAP2 PUSH2 0x1055 JUMP JUMPDEST PUSH1 0x40 MLOAD SWAP2 DUP3 SWAP2 PUSH1 0x20 DUP4 MSTORE PUSH1 0x20 DUP4 ADD SWAP1 PUSH2 0xFA9 JUMP JUMPDEST SUB SWAP1 RETURN JUMPDEST PUSH4 0x4E487B71 PUSH1 0xE0 SHL PUSH1 0x0 MSTORE PUSH1 0x0 PUSH1 0x4 MSTORE PUSH1 0x24 PUSH1 0x0 REVERT JUMPDEST CALLVALUE PUSH2 0x14A JUMPI PUSH2 0x100 CALLDATASIZE PUSH1 0x3 NOT ADD SLT PUSH2 0x14A JUMPI PUSH1 0x4 CALLDATALOAD PUSH1 0x1 PUSH1 0x1 PUSH1 0x40 SHL SUB DUP2 GT PUSH2 0x14A JUMPI PUSH2 0x7EA SWAP1 CALLDATASIZE SWAP1 PUSH1 0x4 ADD PUSH2 0xF30 JUMP JUMPDEST PUSH1 0x24 CALLDATALOAD SWAP1 PUSH1 0x1 PUSH1 0x1 PUSH1 0xA0 SHL SUB DUP3 AND DUP3 SUB PUSH2 0x14A JUMPI PUSH1 0x44 CALLDATALOAD PUSH1 0x1 PUSH1 0x1 PUSH1 0x40 SHL SUB DUP2 GT PUSH2 0x14A JUMPI PUSH2 0x81D SWAP1 CALLDATASIZE SWAP1 PUSH1 0x4 ADD PUSH2 0xF30 JUMP JUMPDEST SWAP1 PUSH1 0x64 CALLDATALOAD PUSH1 0x1 PUSH1 0x1 PUSH1 0x40 SHL SUB DUP2 GT PUSH2 0x14A JUMPI PUSH2 0x83D SWAP1 CALLDATASIZE SWAP1 PUSH1 0x4 ADD PUSH2 0xF30 JUMP JUMPDEST PUSH1 0x84 CALLDATALOAD PUSH1 0x1 PUSH1 0x1 PUSH1 0x40 SHL SUB DUP2 GT PUSH2 0x14A JUMPI PUSH2 0x85C SWAP1 CALLDATASIZE SWAP1 PUSH1 0x4 ADD PUSH2 0xF30 JUMP JUMPDEST PUSH1 0xA4 CALLDATALOAD PUSH1 0x1 PUSH1 0x1 PUSH1 0x40 SHL SUB DUP2 GT PUSH2 0x14A JUMPI PUSH2 0x87B SWAP1 CALLDATASIZE SWAP1 PUSH1 0x4 ADD PUSH2 0xF30 JUMP JUMPDEST PUSH1 0xC4 CALLDATALOAD PUSH1 0x1 PUSH1 0x1 PUSH1 0x40 SHL SUB DUP2 GT PUSH2 0x14A JUMPI PUSH2 0x89A SWAP1 CALLDATASIZE SWAP1 PUSH1 0x4 ADD PUSH2 0xF30 JUMP JUMPDEST SWAP1 PUSH1 0xE4 CALLDATALOAD PUSH1 0x1 PUSH1 0x1 PUSH1 0x40 SHL SUB DUP2 GT PUSH2 0x14A JUMPI PUSH2 0x8BA SWAP1 CALLDATASIZE SWAP1 PUSH1 0x4 ADD PUSH2 0xF30 JUMP JUMPDEST SWAP3 PUSH1 0x1 PUSH1 0x1 PUSH1 0x40 SHL SUB PUSH1 0x8 PUSH1 0x40 MLOAD PUSH1 0x20 DUP2 DUP2 PUSH2 0x8DC DUP13 DUP4 DUP2 MLOAD SWAP4 DUP5 SWAP3 ADD PUSH2 0xF86 JUMP JUMPDEST DUP2 ADD PUSH1 0x0 DUP2 MSTORE SUB ADD SWAP1 KECCAK256 ADD SLOAD PUSH1 0x50 SHR AND PUSH2 0xB5C JUMPI PUSH2 0x8FC DUP8 MLOAD ISZERO ISZERO PUSH2 0x10FB JUMP JUMPDEST PUSH1 0x40 MLOAD SWAP5 PUSH2 0x909 DUP7 PUSH2 0xEF3 JUMP JUMPDEST DUP7 DUP7 MSTORE PUSH1 0x1 DUP1 PUSH1 0xA0 SHL SUB DUP10 AND PUSH1 0x20 DUP8 ADD MSTORE DUP8 PUSH1 0x40 DUP8 ADD MSTORE PUSH1 0x60 DUP7 ADD MSTORE PUSH1 0x80 DUP6 ADD MSTORE PUSH1 0xA0 DUP5 ADD MSTORE PUSH1 0xC0 DUP4 ADD MSTORE PUSH1 0xE0 DUP3 ADD MSTORE PUSH1 0x0 PUSH2 0x100 DUP3 ADD MSTORE PUSH1 0x1 PUSH2 0x120 DUP3 ADD MSTORE PUSH1 0x0 PUSH2 0x140 DUP3 ADD MSTORE PUSH1 0x0 PUSH2 0x160 DUP3 ADD MSTORE PUSH1 0x1 PUSH1 0x1 PUSH1 0x40 SHL SUB TIMESTAMP AND PUSH2 0x180 DUP3 ADD MSTORE PUSH2 0x180 PUSH1 0x8 PUSH1 0x40 MLOAD PUSH1 0x20 DUP2 DUP7 MLOAD PUSH2 0x983 DUP2 DUP4 DUP6 DUP12 ADD PUSH2 0xF86 JUMP JUMPDEST DUP2 ADD PUSH1 0x0 DUP2 MSTORE SUB ADD SWAP1 KECCAK256 PUSH2 0x998 DUP5 MLOAD DUP3 PUSH2 0x1135 JUMP JUMPDEST PUSH1 0x1 DUP2 ADD PUSH1 0x1 DUP1 PUSH1 0xA0 SHL SUB PUSH1 0x20 DUP7 ADD MLOAD AND PUSH12 0xFFFFFFFFFFFFFFFFFFFFFFFF PUSH1 0xA0 SHL DUP3 SLOAD AND OR SWAP1 SSTORE PUSH2 0x9D0 PUSH1 0x40 DUP6 ADD MLOAD PUSH1 0x2 DUP4 ADD PUSH2 0x1135 JUMP JUMPDEST PUSH2 0x9E1 PUSH1 0x60 DUP6 ADD MLOAD PUSH1 0x3 DUP4 ADD PUSH2 0x1135 JUMP JUMPDEST PUSH2 0x9F2 PUSH1 0x80 DUP6 ADD MLOAD PUSH1 0x4 DUP4 ADD PUSH2 0x1135 JUMP JUMPDEST PUSH2 0xA03 PUSH1 0xA0 DUP6 ADD MLOAD PUSH1 0x5 DUP4 ADD PUSH2 0x1135 JUMP JUMPDEST PUSH2 0xA14 PUSH1 0xC0 DUP6 ADD MLOAD PUSH1 0x6 DUP4 ADD PUSH2 0x1135 JUMP JUMPDEST PUSH2 0xA25 PUSH1 0xE0 DUP6 ADD MLOAD PUSH1 0x7 DUP4 ADD PUSH2 0x1135 JUMP JUMPDEST ADD SWAP2 PUSH2 0x100 DUP2 ADD MLOAD ISZERO ISZERO DUP4 SLOAD PUSH1 0xFF PUSH2 0xFF00 PUSH2 0x120 DUP6 ADD MLOAD ISZERO ISZERO PUSH1 0x8 SHL AND SWAP3 AND SWAP1 PUSH2 0xFFFF NOT AND OR OR DUP4 SSTORE PUSH2 0xAA8 PUSH4 0xFFFFFFFF PUSH2 0xA80 DUP2 PUSH2 0x140 DUP6 ADD MLOAD AND DUP7 SWAP1 PUSH6 0xFFFFFFFF0000 DUP3 SLOAD SWAP2 PUSH1 0x10 SHL AND SWAP1 PUSH6 0xFFFFFFFF0000 NOT AND OR SWAP1 SSTORE JUMP JUMPDEST PUSH2 0x160 DUP4 ADD MLOAD DUP6 SLOAD PUSH10 0xFFFFFFFF000000000000 NOT AND SWAP2 AND PUSH1 0x30 SHL PUSH4 0xFFFFFFFF PUSH1 0x30 SHL AND OR DUP5 SSTORE JUMP JUMPDEST ADD MLOAD DUP2 SLOAD PUSH8 0xFFFFFFFFFFFFFFFF PUSH1 0x50 SHL NOT AND PUSH1 0x50 SWAP2 SWAP1 SWAP2 SHL PUSH8 0xFFFFFFFFFFFFFFFF PUSH1 0x50 SHL AND OR SWAP1 SSTORE PUSH1 0x1 SLOAD PUSH9 0x10000000000000000 DUP2 LT ISZERO PUSH2 0x24A JUMPI DUP1 PUSH1 0x1 PUSH2 0xAF4 SWAP3 ADD PUSH1 0x1 SSTORE PUSH2 0xFCE JUMP JUMPDEST PUSH2 0x7A3 JUMPI PUSH32 0x7C98ADF02980DCF2E98788352E04A53BD1B88DD7F7194145B534CCA37A7E32B2 SWAP4 PUSH2 0xB3F SWAP4 PUSH2 0xB2B DUP5 PUSH2 0x145 SWAP5 PUSH2 0x1135 JUMP JUMPDEST PUSH1 0x40 MLOAD SWAP5 DUP6 SWAP5 PUSH1 0x60 DUP7 MSTORE PUSH1 0x60 DUP7 ADD SWAP1 PUSH2 0xFA9 JUMP JUMPDEST PUSH1 0x1 PUSH1 0x1 PUSH1 0xA0 SHL SUB SWAP1 SWAP3 AND PUSH1 0x20 DUP6 ADD MSTORE DUP4 DUP3 SUB PUSH1 0x40 DUP6 ADD MSTORE PUSH2 0xFA9 JUMP JUMPDEST PUSH1 0x40 MLOAD PUSH3 0x461BCD PUSH1 0xE5 SHL DUP2 MSTORE PUSH1 0x20 PUSH1 0x4 DUP3 ADD MSTORE PUSH1 0xD PUSH1 0x24 DUP3 ADD MSTORE PUSH13 0x416C7265616479457869737473 PUSH1 0x98 SHL PUSH1 0x44 DUP3 ADD MSTORE PUSH1 0x64 SWAP1 REVERT JUMPDEST CALLVALUE PUSH2 0x14A JUMPI PUSH1 0x20 CALLDATASIZE PUSH1 0x3 NOT ADD SLT PUSH2 0x14A JUMPI PUSH1 0x4 CALLDATALOAD PUSH1 0x1 PUSH1 0x1 PUSH1 0x40 SHL SUB DUP2 GT PUSH2 0x14A JUMPI PUSH1 0x20 PUSH2 0xBC6 PUSH2 0xC3A SWAP3 CALLDATASIZE SWAP1 PUSH1 0x4 ADD PUSH2 0xF30 JUMP JUMPDEST PUSH1 0x0 PUSH2 0x180 PUSH1 0x40 MLOAD PUSH2 0xBD7 DUP2 PUSH2 0xEF3 JUMP JUMPDEST PUSH1 0x60 DUP2 MSTORE DUP3 DUP6 DUP3 ADD MSTORE PUSH1 0x60 PUSH1 0x40 DUP3 ADD MSTORE PUSH1 0x60 DUP1 DUP3 ADD MSTORE PUSH1 0x60 PUSH1 0x80 DUP3 ADD MSTORE PUSH1 0x60 PUSH1 0xA0 DUP3 ADD MSTORE PUSH1 0x60 PUSH1 0xC0 DUP3 ADD MSTORE PUSH1 0x60 PUSH1 0xE0 DUP3 ADD MSTORE DUP3 PUSH2 0x100 DUP3 ADD MSTORE DUP3 PUSH2 0x120 DUP3 ADD MSTORE DUP3 PUSH2 0x140 DUP3 ADD MSTORE DUP3 PUSH2 0x160 DUP3 ADD MSTORE ADD MSTORE DUP2 PUSH1 0x40 MLOAD SWAP4 DUP3 DUP6 DUP1 SWAP5 MLOAD SWAP4 DUP5 SWAP3 ADD PUSH2 0xF86 JUMP JUMPDEST DUP2 ADD PUSH1 0x0 DUP2 MSTORE SUB ADD SWAP1 KECCAK256 PUSH1 0x1 PUSH1 0x1 PUSH1 0x40 SHL SUB PUSH1 0x8 PUSH1 0x40 MLOAD SWAP3 PUSH2 0xC5B DUP5 PUSH2 0xEF3 JUMP JUMPDEST PUSH2 0xC64 DUP2 PUSH2 0x1055 JUMP JUMPDEST DUP5 MSTORE PUSH1 0x1 DUP2 ADD SLOAD PUSH1 0x1 PUSH1 0x1 PUSH1 0xA0 SHL SUB AND PUSH1 0x20 DUP6 ADD MSTORE PUSH2 0xC85 PUSH1 0x2 DUP3 ADD PUSH2 0x1055 JUMP JUMPDEST PUSH1 0x40 DUP6 ADD MSTORE PUSH2 0xC96 PUSH1 0x3 DUP3 ADD PUSH2 0x1055 JUMP JUMPDEST PUSH1 0x60 DUP6 ADD MSTORE PUSH2 0xCA7 PUSH1 0x4 DUP3 ADD PUSH2 0x1055 JUMP JUMPDEST PUSH1 0x80 DUP6 ADD MSTORE PUSH2 0xCB8 PUSH1 0x5 DUP3 ADD PUSH2 0x1055 JUMP JUMPDEST PUSH1 0xA0 DUP6 ADD MSTORE PUSH2 0xCC9 PUSH1 0x6 DUP3 ADD PUSH2 0x1055 JUMP JUMPDEST PUSH1 0xC0 DUP6 ADD MSTORE PUSH2 0xCDA PUSH1 0x7 DUP3 ADD PUSH2 0x1055 JUMP JUMPDEST PUSH1 0xE0 DUP6 ADD MSTORE ADD SLOAD PUSH1 0xFF DUP2 AND ISZERO ISZERO PUSH2 0x100 DUP5 ADD MSTORE PUSH1 0xFF DUP2 PUSH1 0x8 SHR AND ISZERO ISZERO PUSH2 0x120 DUP5 ADD MSTORE PUSH4 0xFFFFFFFF DUP2 PUSH1 0x10 SHR AND PUSH2 0x140 DUP5 ADD MSTORE PUSH4 0xFFFFFFFF DUP2 PUSH1 0x30 SHR AND PUSH2 0x160 DUP5 ADD MSTORE PUSH1 0x50 SHR AND PUSH2 0x180 DUP3 ADD MSTORE PUSH1 0x40 MLOAD DUP1 SWAP2 PUSH1 0x20 DUP3 MSTORE PUSH1 0x1 PUSH1 0x1 PUSH1 0x40 SHL SUB PUSH2 0x180 PUSH2 0xDF6 PUSH2 0xD55 DUP5 MLOAD PUSH2 0x1A0 PUSH1 0x20 DUP9 ADD MSTORE PUSH2 0x1C0 DUP8 ADD SWAP1 PUSH2 0xFA9 JUMP JUMPDEST PUSH1 0x1 DUP1 PUSH1 0xA0 SHL SUB PUSH1 0x20 DUP7 ADD MLOAD AND PUSH1 0x40 DUP8 ADD MSTORE PUSH2 0xDE0 PUSH2 0xDCC PUSH2 0xDB8 PUSH2 0xDA4 PUSH2 0xD90 PUSH1 0x40 DUP11 ADD MLOAD SWAP6 PUSH1 0x1F NOT SWAP7 DUP13 PUSH1 0x60 DUP10 DUP3 DUP6 SUB ADD SWAP2 ADD MSTORE PUSH2 0xFA9 JUMP JUMPDEST PUSH1 0x60 DUP11 ADD MLOAD DUP7 DUP13 DUP4 SUB ADD PUSH1 0x80 DUP14 ADD MSTORE PUSH2 0xFA9 JUMP JUMPDEST PUSH1 0x80 DUP10 ADD MLOAD DUP6 DUP12 DUP4 SUB ADD PUSH1 0xA0 DUP13 ADD MSTORE PUSH2 0xFA9 JUMP JUMPDEST PUSH1 0xA0 DUP9 ADD MLOAD DUP5 DUP11 DUP4 SUB ADD PUSH1 0xC0 DUP12 ADD MSTORE PUSH2 0xFA9 JUMP JUMPDEST PUSH1 0xC0 DUP8 ADD MLOAD DUP4 DUP10 DUP4 SUB ADD PUSH1 0xE0 DUP11 ADD MSTORE PUSH2 0xFA9 JUMP JUMPDEST SWAP1 PUSH1 0xE0 DUP7 ADD MLOAD SWAP1 DUP8 DUP4 SUB ADD PUSH2 0x100 DUP9 ADD MSTORE PUSH2 0xFA9 JUMP JUMPDEST SWAP3 PUSH2 0x100 DUP2 ADD MLOAD ISZERO ISZERO PUSH2 0x120 DUP7 ADD MSTORE PUSH2 0x120 DUP2 ADD MLOAD ISZERO ISZERO PUSH2 0x140 DUP7 ADD MSTORE PUSH4 0xFFFFFFFF PUSH2 0x140 DUP3 ADD MLOAD AND PUSH2 0x160 DUP7 ADD MSTORE PUSH4 0xFFFFFFFF PUSH2 0x160 DUP3 ADD MLOAD AND DUP3 DUP7 ADD MSTORE ADD MLOAD AND PUSH2 0x1A0 DUP4 ADD MSTORE SUB SWAP1 RETURN JUMPDEST CALLVALUE PUSH2 0x14A JUMPI PUSH1 0x20 CALLDATASIZE PUSH1 0x3 NOT ADD SLT PUSH2 0x14A JUMPI PUSH1 0x1 PUSH1 0x1 PUSH1 0x40 SHL SUB PUSH1 0x4 CALLDATALOAD DUP2 DUP2 GT PUSH2 0x14A JUMPI PUSH32 0x8E3884215C0CAD13E86122E368E0C57EE8C1ADA0A39429032574AD3BBCE8483C SWAP2 PUSH1 0x8 PUSH2 0xED1 PUSH1 0x20 PUSH2 0xE9F PUSH2 0x145 SWAP6 CALLDATASIZE SWAP1 PUSH1 0x4 ADD PUSH2 0xF30 JUMP JUMPDEST SWAP4 PUSH2 0xEBC PUSH1 0x40 MLOAD SWAP2 DUP6 DUP8 MLOAD SWAP4 DUP6 DUP2 DUP2 DUP12 ADD SWAP7 PUSH2 0xF9 DUP2 DUP4 DUP11 PUSH2 0xF86 JUMP JUMPDEST PUSH2 0x110 PUSH1 0x40 MLOAD PUSH1 0x1 DUP8 MLOAD PUSH2 0x6C6 DUP2 DUP5 DUP8 PUSH2 0xF86 JUMP JUMPDEST DUP2 ADD PUSH1 0x0 DUP2 MSTORE SUB ADD SWAP1 KECCAK256 ADD PUSH2 0xFF00 NOT DUP2 SLOAD AND SWAP1 SSTORE PUSH1 0x40 MLOAD SWAP2 DUP3 SWAP2 CALLER SWAP1 DUP4 PUSH2 0x12B2 JUMP JUMPDEST PUSH2 0x1A0 DUP2 ADD SWAP1 DUP2 LT PUSH1 0x1 PUSH1 0x1 PUSH1 0x40 SHL SUB DUP3 GT OR PUSH2 0x24A JUMPI PUSH1 0x40 MSTORE JUMP JUMPDEST SWAP1 PUSH1 0x1F DUP1 NOT SWAP2 ADD AND DUP2 ADD SWAP1 DUP2 LT PUSH1 0x1 PUSH1 0x1 PUSH1 0x40 SHL SUB DUP3 GT OR PUSH2 0x24A JUMPI PUSH1 0x40 MSTORE JUMP JUMPDEST DUP2 PUSH1 0x1F DUP3 ADD SLT ISZERO PUSH2 0x14A JUMPI DUP1 CALLDATALOAD SWAP1 PUSH1 0x1 PUSH1 0x1 PUSH1 0x40 SHL SUB DUP3 GT PUSH2 0x24A JUMPI PUSH1 0x40 MLOAD SWAP3 PUSH2 0xF64 PUSH1 0x1F DUP5 ADD PUSH1 0x1F NOT AND PUSH1 0x20 ADD DUP6 PUSH2 0xF0F JUMP JUMPDEST DUP3 DUP5 MSTORE PUSH1 0x20 DUP4 DUP4 ADD ADD GT PUSH2 0x14A JUMPI DUP2 PUSH1 0x0 SWAP3 PUSH1 0x20 DUP1 SWAP4 ADD DUP4 DUP7 ADD CALLDATACOPY DUP4 ADD ADD MSTORE SWAP1 JUMP JUMPDEST PUSH1 0x0 JUMPDEST DUP4 DUP2 LT PUSH2 0xF99 JUMPI POP POP PUSH1 0x0 SWAP2 ADD MSTORE JUMP JUMPDEST DUP2 DUP2 ADD MLOAD DUP4 DUP3 ADD MSTORE PUSH1 0x20 ADD PUSH2 0xF89 JUMP JUMPDEST SWAP1 PUSH1 0x20 SWAP2 PUSH2 0xFC2 DUP2 MLOAD DUP1 SWAP3 DUP2 DUP6 MSTORE DUP6 DUP1 DUP7 ADD SWAP2 ADD PUSH2 0xF86 JUMP JUMPDEST PUSH1 0x1F ADD PUSH1 0x1F NOT AND ADD ADD SWAP1 JUMP JUMPDEST PUSH1 0x1 SLOAD DUP2 LT ISZERO PUSH2 0x1005 JUMPI PUSH1 0x1 PUSH1 0x0 MSTORE PUSH32 0xB10E2D527612073B26EECDFD717E6A320CF44B4AFAC2B0732D9FCBE2B7FA0CF6 ADD SWAP1 PUSH1 0x0 SWAP1 JUMP JUMPDEST PUSH4 0x4E487B71 PUSH1 0xE0 SHL PUSH1 0x0 MSTORE PUSH1 0x32 PUSH1 0x4 MSTORE PUSH1 0x24 PUSH1 0x0 REVERT JUMPDEST SWAP1 PUSH1 0x1 DUP3 DUP2 SHR SWAP3 AND DUP1 ISZERO PUSH2 0x104B JUMPI JUMPDEST PUSH1 0x20 DUP4 LT EQ PUSH2 0x1035 JUMPI JUMP JUMPDEST PUSH4 0x4E487B71 PUSH1 0xE0 SHL PUSH1 0x0 MSTORE PUSH1 0x22 PUSH1 0x4 MSTORE PUSH1 0x24 PUSH1 0x0 REVERT JUMPDEST SWAP2 PUSH1 0x7F AND SWAP2 PUSH2 0x102A JUMP JUMPDEST SWAP1 PUSH1 0x40 MLOAD SWAP2 DUP3 PUSH1 0x0 DUP3 SLOAD SWAP3 PUSH2 0x1069 DUP5 PUSH2 0x101B JUMP JUMPDEST SWAP1 DUP2 DUP5 MSTORE PUSH1 0x1 SWAP5 DUP6 DUP2 AND SWAP1 DUP2 PUSH1 0x0 EQ PUSH2 0x10D8 JUMPI POP PUSH1 0x1 EQ PUSH2 0x1095 JUMPI JUMPDEST POP POP PUSH2 0x1093 SWAP3 POP SUB DUP4 PUSH2 0xF0F JUMP JUMPDEST JUMP JUMPDEST SWAP1 SWAP4 SWAP2 POP PUSH1 0x0 MSTORE PUSH1 0x20 SWAP1 DUP2 PUSH1 0x0 KECCAK256 SWAP4 PUSH1 0x0 SWAP2 JUMPDEST DUP2 DUP4 LT PUSH2 0x10C0 JUMPI POP POP PUSH2 0x1093 SWAP4 POP DUP3 ADD ADD CODESIZE DUP1 PUSH2 0x1085 JUMP JUMPDEST DUP6 SLOAD DUP9 DUP5 ADD DUP6 ADD MSTORE SWAP5 DUP6 ADD SWAP5 DUP8 SWAP5 POP SWAP2 DUP4 ADD SWAP2 PUSH2 0x10A8 JUMP JUMPDEST SWAP2 POP POP PUSH2 0x1093 SWAP5 POP PUSH1 0x20 SWAP3 POP PUSH1 0xFF NOT AND DUP3 DUP5 ADD MSTORE ISZERO ISZERO PUSH1 0x5 SHL DUP3 ADD ADD CODESIZE DUP1 PUSH2 0x1085 JUMP JUMPDEST ISZERO PUSH2 0x1102 JUMPI JUMP JUMPDEST PUSH1 0x40 MLOAD PUSH3 0x461BCD PUSH1 0xE5 SHL DUP2 MSTORE PUSH1 0x20 PUSH1 0x4 DUP3 ADD MSTORE PUSH1 0xB PUSH1 0x24 DUP3 ADD MSTORE PUSH11 0x496E76616C69644E616D65 PUSH1 0xA8 SHL PUSH1 0x44 DUP3 ADD MSTORE PUSH1 0x64 SWAP1 REVERT JUMPDEST SWAP2 SWAP1 SWAP2 DUP3 MLOAD PUSH1 0x1 PUSH1 0x1 PUSH1 0x40 SHL SUB DUP2 GT PUSH2 0x24A JUMPI PUSH2 0x1152 DUP3 SLOAD PUSH2 0x101B JUMP JUMPDEST PUSH1 0x1F DUP2 GT PUSH2 0x11FC JUMPI JUMPDEST POP PUSH1 0x20 DUP1 PUSH1 0x1F DUP4 GT PUSH1 0x1 EQ PUSH2 0x1198 JUMPI POP DUP2 SWAP3 SWAP4 SWAP5 PUSH1 0x0 SWAP3 PUSH2 0x118D JUMPI JUMPDEST POP POP DUP2 PUSH1 0x1 SHL SWAP2 PUSH1 0x0 NOT SWAP1 PUSH1 0x3 SHL SHR NOT AND OR SWAP1 SSTORE JUMP JUMPDEST ADD MLOAD SWAP1 POP CODESIZE DUP1 PUSH2 0x1177 JUMP JUMPDEST SWAP1 PUSH1 0x1F NOT DUP4 AND SWAP6 DUP5 PUSH1 0x0 MSTORE DUP3 PUSH1 0x0 KECCAK256 SWAP3 PUSH1 0x0 SWAP1 JUMPDEST DUP9 DUP3 LT PUSH2 0x11E4 JUMPI POP POP DUP4 PUSH1 0x1 SWAP6 SWAP7 SWAP8 LT PUSH2 0x11CB JUMPI JUMPDEST POP POP POP DUP2 SHL ADD SWAP1 SSTORE JUMP JUMPDEST ADD MLOAD PUSH1 0x0 NOT PUSH1 0xF8 DUP5 PUSH1 0x3 SHL AND SHR NOT AND SWAP1 SSTORE CODESIZE DUP1 DUP1 PUSH2 0x11C1 JUMP JUMPDEST DUP1 PUSH1 0x1 DUP6 SWAP7 DUP3 SWAP5 SWAP7 DUP7 ADD MLOAD DUP2 SSTORE ADD SWAP6 ADD SWAP4 ADD SWAP1 PUSH2 0x11AC JUMP JUMPDEST PUSH1 0x0 DUP4 DUP2 MSTORE PUSH1 0x20 DUP2 KECCAK256 PUSH1 0x1F DUP5 ADD PUSH1 0x5 SHR DUP2 ADD SWAP3 PUSH1 0x20 DUP6 LT PUSH2 0x123A JUMPI JUMPDEST PUSH1 0x1F ADD PUSH1 0x5 SHR ADD SWAP2 JUMPDEST DUP3 DUP2 LT PUSH2 0x122F JUMPI POP POP PUSH2 0x115B JUMP JUMPDEST DUP2 DUP2 SSTORE PUSH1 0x1 ADD PUSH2 0x1221 JUMP JUMPDEST SWAP1 SWAP3 POP DUP3 SWAP1 PUSH2 0x1218 JUMP JUMPDEST ISZERO PUSH2 0x124B JUMPI JUMP JUMPDEST PUSH1 0x40 MLOAD PUSH3 0x461BCD PUSH1 0xE5 SHL DUP2 MSTORE PUSH1 0x20 PUSH1 0x4 DUP3 ADD MSTORE PUSH1 0x8 PUSH1 0x24 DUP3 ADD MSTORE PUSH8 0x139BDD119BDD5B99 PUSH1 0xC2 SHL PUSH1 0x44 DUP3 ADD MSTORE PUSH1 0x64 SWAP1 REVERT JUMPDEST ISZERO PUSH2 0x1282 JUMPI JUMP JUMPDEST PUSH1 0x40 MLOAD PUSH3 0x461BCD PUSH1 0xE5 SHL DUP2 MSTORE PUSH1 0x20 PUSH1 0x4 DUP3 ADD MSTORE PUSH1 0x8 PUSH1 0x24 DUP3 ADD MSTORE PUSH8 0x2737BA27BBB732B9 PUSH1 0xC1 SHL PUSH1 0x44 DUP3 ADD MSTORE PUSH1 0x64 SWAP1 REVERT JUMPDEST SWAP1 PUSH2 0x12CA PUSH1 0x20 SWAP2 SWAP5 SWAP4 SWAP5 PUSH1 0x40 DUP5 MSTORE PUSH1 0x40 DUP5 ADD SWAP1 PUSH2 0xFA9 JUMP JUMPDEST PUSH1 0x1 PUSH1 0x1 PUSH1 0xA0 SHL SUB SWAP1 SWAP5 AND SWAP2 ADD MSTORE JUMP INVALID LOG2 PUSH5 0x6970667358 0x22 SLT KECCAK256 0xB6 0xBE CALLCODE PUSH18 0x232C8D51F6215783D51A8BF7F91231F36B8C 0x4B 0xC8 PUSH7 0x232E5032874661 PUSH5 0x736F6C6343 STOP ADDMOD EQ STOP CALLER "},"methodIdentifiers":{"createListing(string,address,string,string,string,string,string,string)":"4e622584","deactivateListing(string)":"0f7cffeb","getListing(string)":"4ae9ec30","listAll()":"78a9eeed","listingIds(uint256)":"52bea360","listings(string)":"77dec6c3","rateListing(string,uint32)":"6678e193","updateListing(string,string,string,string,string)":"5dcece96","verifyListing(string)":"dc17b155"}}}}}